:0400000080313428EF
:100008007E14803100308600003087004101161EC2
:100018000E280F2817280C1E122813281728843199
:100028006E24803132280B1F1A281B2832281C1CEA
:100038001E281F282728121C222823282728843115
:10004800A424803132289C1C2A282B283228921C70
:100058002E282F2832288431A12480317E100900CF
:10006800803136288030840082308500A0308600B8
:1000780000308700323084317F2480312030840082
:100088000030850031308431852480317E10400174
:100098008231B22A4001530886008701403FD500CB
:1000A800413FD60055088400560885001200253ABD
:1000B800031D5F2860281D29530886008701013029
:1000C800810741310318810AC001C1010030D00005
:1000D800FF30C200FF30C300530886008701403F4D
:1000E800DA00413FDB005A0884005B0885001200F3
:1000F800643A0319802881288B285A0884005B08F1
:1001080085001200693A031D8A288B281329540890
:100118008600870101088400850102308107003FBD
:10012800DC00013FDD005A08013ED50000305B3D90
:10013800D6005308860087015508C03F5608C13FBE
:100148002030E000DD1BA928AB280130AC280030A6
:10015800D9000130E0026008203E860087010A309D
:10016800F0000030F1005D08F3005C08F200813116
:10017800EF2180317108F7007008F6008331C82339
:1001880080317608303E81000A30F0000030F100FE
:1001980040015D08F3005C08F20081319421803150
:1001A80071084001DD007008DC005C085D0403197B
:1001B800DE28DF28E4286008031DE328E428AD28AA
:1001C80060080319E828E9280C2959080319ED28BB
:1001D800EE280C290130E0026008203E86008701E5
:1001E8002D3081000C296008203E86008701010817
:1001F800D500D6015508F2005608F3005208F5005C
:100208005108F40081313821803101304001E00784
:1002180020306006031D11291229F72837294001CB
:100228005308860087010130810741310318810A8C
:100238003729530886008701403FD500413FD60043
:1002480055088400560885000008D700D8015708CB
:10025800F2005808F3005208F5005108F400813103
:1002680038218031132908007408750403193D29C1
:100278003E29442974087504031D43294429492942
:1002880072088331FA23813193297408860075082E
:100298008700493116000104031953295429742988
:1002A80074088600750887004931403FF600413FD1
:1002B800F70074088600750887004231403FF8004F
:1002C800413FF9007908803AFA007708803A7A02C3
:1002D800031D702976087802031873297429932955
:1002E8007408860075088700423174088400750810
:1002F8008500003FF600013FF700403F7607840085
:10030800413F773D850072088000740886007508B3
:10031800870042310130810741310318810A080002
:10032800F501F11F98299929A029F009F109F00A86
:100338000319F10A0130F500F31FA329A429AB29F9
:10034800F209F309F20A0319F30A0130F506F60176
:10035800F701700871040319B229B329E0290130A3
:10036800F400BD290130F035F10D890BB7290130B2
:10037800F407F11FC029C129B6290130F635F70D58
:10038800890BC22971087302031DCC2970087202F7
:10039800031CCF29D029D5297008F2027108F33B34
:1003A80076140130F136F00C890BD6290130F402AD
:1003B800031DDF29E029C12975080319E429E52966
:1003C800EA29F609F709F60A0319F70A7708F10086
:1003D8007608F0000800F501F31FF329F429FB293A
:1003E800F209F309F20A0319F30A0130F500F11FC3
:1003F800FE29FF29042AF009F109F00A0319F10A74
:10040800700871040319092A0A2A312A0130F400F4
:10041800142A0130F035F10D890B0E2A0130F4074A
:10042800F11F172A182A0D2A71087302031D1E2AA4
:1004380070087202031C212A222A262A7008F20256
:100448007108F33B0130F136F00C890B272A013093
:10045800F402031D302A312A182A75080319352A8F
:10046800362A3B2AF209F309F20A0319F30A730838
:10047800F1007208F000080040019801990110305D
:100488009A0037309200F0309300EB309400373008
:100498007D018C00F0309600C330A0008D019701DB
:1004A8000830A1008E019801A20137308F00F0308A
:1004B8009900FF30A3003B309000F0309A00C33021
:1004C800A40015307C01C20013307B01A0007D011F
:1004D8009101920193019B019C019D01A5010830A6
:1004E800A600A701A730F0000430F10084318B2466
:1004F8008231410116160800483469342C342034FE
:10050800543468346934733420346934733420348F
:100518005034493443343134333431343434353459
:1005280020344E3461346E346F3420344B346934A3
:10053800743420344E3469346334653420344D3493
:1005480065346534743469346E346734203459340E
:100558006F34753421340D340A3400348331B523B3
:1005680082318B170B17A030F30083314623823179
:1005780027304001E6008430E7008331EA238231E6
:10058800023084313424823164304001E600843002
:10059800E70084319724823171084001E90070082E
:1005A800E8008331EA23823121304001EB007630C4
:1005B800890BDC2AEB0BDC2A0000C42A80313428A2
:1005C8007A01A6138430A600A7011830A8001030BD
:1005D800A900AD01AE01AF01B0018C018D018E0102
:1005E8008F01920193019801970196019E019D0147
:1005F80099019A01A30102309F00A101A201A4015F
:10060800A501AB01AC01AA014001CE01CF01CC018B
:10061800CD01410112101C1092109C1084307A01F7
:10062800A600080085340334003400340034003454
:100638009D34043400340034093404340034003464
:100648000034003400340034003400340034003402
:1006580000340034003400340034003400340034F2
:1006680000340034003400340034003400340034E2
:10067800003400344D34043441340434003400343C
:1006880000340034F401F501562B73087407860012
:1006980087010108F00084319D2483310130F4077B
:1006A8000030F53D7308F0008331A12383317108D0
:1006B8007502031D612B70087402031C642B652BE3
:1006C800492B080040016408FD006308FC00782BF2
:1006D80040016208D2006108D1007C30D30065086F
:1006E800D40080314E2083317C0884007D08850049
:1006F8001200031D802B812B6C2B4001E101E201CC
:10070800080048304E019200903090002630910049
:1007180019308E008F010030F0000030F100843174
:100728004D2483310030F0000030F1008431412441
:1007380083314001C801C90108007008F200A62BE6
:100748000130F0077008860087010108031DAD2BF2
:10075800AE2BA42B72087002F000F101F01BF1031C
:1007680008008431772483318231402283318231F9
:10077800E42283318331D923833183318523833143
:100788008431592483310800F71BCB2BCC2BCD2B7C
:10079800D82B7609F8007709F900F80A0319F90A3D
:1007A8007808F6007908F70008001E3043019D001C
:1007B8009C0175309F0000304001EC000030ED00D6
:1007C80041018C12803043019E00080068304001CE
:1007D800EA000030E100E2006708E4006608E30090
:1007E8006A30E5008331662383310800F1008431E3
:1007F80009248331003A0319022C032CFB2B7108BE
:10080800F00084319D2483310800F0014101101F5C
:100818000E2C0F2C162C4E01911E132C142C162C5A
:100828000130F0007008080040016E086F040319D9
:100838001E2C1F2C242C6F088A006E080A00843195
:100848007D01A71108007434653473347434693435
:100858006E3467342E342E342E340D340A3400347A
:10086800F00070087A019F002613261426183D2CE4
:100878003E2C3A2C1E081D08080070087104031944
:10088800462C472C4C2C71084001C5007008C40048
:100898000800700871040319522C532C582C710845
:1008A8004001C7007008C600080041010C100B1475
:1008B8000030F0000030F1008431912484310800C8
:1008C8004134443443343A342034253464340D34C8
:1008D8000A3400347D01A71D722C732C762C8431C8
:1008E800182484310800603045018D008F01910182
:1008F800930192010800FE0012001E00FE0B802CDE
:100908000034640080010131890B862C00347108A1
:100918004001EF007008EE00080071084001CB00AC
:100928007008CA0008007A011E08F1001D08F000CE
:10093800080070084E018D0008004101921008005F
:08094800410112100800080033
:020000040001F9
:0A000E008C3FFF3F9F3FFF3FFF3F85
:00000001FF
